{
  "_format": "hh-sol-artifact-1",
  "contractName": "PrecedenceNFT",
  "sourceName": "contracts/Precedence.sol",
  "abi": [
    {
      "inputs": [],
      "stateMutability": "nonpayable",
      "type": "constructor"
    },
    {
      "anonymous": false,
      "inputs": [
        {
          "indexed": true,
          "internalType": "uint256",
          "name": "tokenId",
          "type": "uint256"
        },
        {
          "indexed": false,
          "internalType": "address",
          "name": "author",
          "type": "address"
        },
        {
          "indexed": false,
          "internalType": "address",
          "name": "owner",
          "type": "address"
        },
        {
          "indexed": false,
          "internalType": "uint256",
          "name": "price",
          "type": "uint256"
        },
        {
          "indexed": false,
          "internalType": "uint256",
          "name": "dateCreated",
          "type": "uint256"
        },
        {
          "indexed": false,
          "internalType": "bool",
          "name": "approved",
          "type": "bool"
        }
      ],
      "name": "AmarumItemCreated",
      "type": "event"
    },
    {
      "anonymous": false,
      "inputs": [
        {
          "indexed": true,
          "internalType": "address",
          "name": "owner",
          "type": "address"
        },
        {
          "indexed": true,
          "internalType": "address",
          "name": "approved",
          "type": "address"
        },
        {
          "indexed": true,
          "internalType": "uint256",
          "name": "tokenId",
          "type": "uint256"
        }
      ],
      "name": "Approval",
      "type": "event"
    },
    {
      "anonymous": false,
      "inputs": [
        {
          "indexed": true,
          "internalType": "uint256",
          "name": "tokenId",
          "type": "uint256"
        },
        {
          "indexed": false,
          "internalType": "address",
          "name": "admin",
          "type": "address"
        },
        {
          "indexed": false,
          "internalType": "uint256",
          "name": "dateApproved",
          "type": "uint256"
        }
      ],
      "name": "ApprovalCreated",
      "type": "event"
    },
    {
      "anonymous": false,
      "inputs": [
        {
          "indexed": true,
          "internalType": "address",
          "name": "owner",
          "type": "address"
        },
        {
          "indexed": true,
          "internalType": "address",
          "name": "operator",
          "type": "address"
        },
        {
          "indexed": false,
          "internalType": "bool",
          "name": "approved",
          "type": "bool"
        }
      ],
      "name": "ApprovalForAll",
      "type": "event"
    },
    {
      "anonymous": false,
      "inputs": [
        {
          "indexed": true,
          "internalType": "address",
          "name": "from",
          "type": "address"
        },
        {
          "indexed": true,
          "internalType": "address",
          "name": "to",
          "type": "address"
        },
        {
          "indexed": true,
          "internalType": "uint256",
          "name": "tokenId",
          "type": "uint256"
        }
      ],
      "name": "Transfer",
      "type": "event"
    },
    {
      "anonymous": false,
      "inputs": [
        {
          "indexed": true,
          "internalType": "uint256",
          "name": "vId",
          "type": "uint256"
        },
        {
          "indexed": false,
          "internalType": "uint256",
          "name": "tokenId",
          "type": "uint256"
        },
        {
          "indexed": false,
          "internalType": "address",
          "name": "visitor",
          "type": "address"
        }
      ],
      "name": "ViewItemCreated",
      "type": "event"
    },
    {
      "inputs": [],
      "name": "_itemApproved",
      "outputs": [
        {
          "internalType": "uint256",
          "name": "_value",
          "type": "uint256"
        }
      ],
      "stateMutability": "view",
      "type": "function"
    },
    {
      "inputs": [],
      "name": "_viewIds",
      "outputs": [
        {
          "internalType": "uint256",
          "name": "_value",
          "type": "uint256"
        }
      ],
      "stateMutability": "view",
      "type": "function"
    },
    {
      "inputs": [],
      "name": "admin",
      "outputs": [
        {
          "internalType": "address",
          "name": "",
          "type": "address"
        }
      ],
      "stateMutability": "view",
      "type": "function"
    },
    {
      "inputs": [
        {
          "internalType": "address",
          "name": "to",
          "type": "address"
        },
        {
          "internalType": "uint256",
          "name": "tokenId",
          "type": "uint256"
        }
      ],
      "name": "approve",
      "outputs": [],
      "stateMutability": "nonpayable",
      "type": "function"
    },
    {
      "inputs": [
        {
          "internalType": "address",
          "name": "owner",
          "type": "address"
        }
      ],
      "name": "balanceOf",
      "outputs": [
        {
          "internalType": "uint256",
          "name": "",
          "type": "uint256"
        }
      ],
      "stateMutability": "view",
      "type": "function"
    },
    {
      "inputs": [
        {
          "internalType": "uint256",
          "name": "tokenId",
          "type": "uint256"
        }
      ],
      "name": "createAmarumApproval",
      "outputs": [],
      "stateMutability": "nonpayable",
      "type": "function"
    },
    {
      "inputs": [
        {
          "internalType": "string",
          "name": "tokenURI",
          "type": "string"
        }
      ],
      "name": "createToken",
      "outputs": [
        {
          "internalType": "uint256",
          "name": "",
          "type": "uint256"
        }
      ],
      "stateMutability": "payable",
      "type": "function"
    },
    {
      "inputs": [
        {
          "internalType": "uint256",
          "name": "tokenId",
          "type": "uint256"
        }
      ],
      "name": "createViewItem",
      "outputs": [],
      "stateMutability": "nonpayable",
      "type": "function"
    },
    {
      "inputs": [],
      "name": "fetchAllAmarums",
      "outputs": [
        {
          "components": [
            {
              "internalType": "uint256",
              "name": "tokenId",
              "type": "uint256"
            },
            {
              "internalType": "address payable",
              "name": "author",
              "type": "address"
            },
            {
              "internalType": "address payable",
              "name": "owner",
              "type": "address"
            },
            {
              "internalType": "uint256",
              "name": "price",
              "type": "uint256"
            },
            {
              "internalType": "uint256",
              "name": "dateCreated",
              "type": "uint256"
            },
            {
              "internalType": "bool",
              "name": "approved",
              "type": "bool"
            }
          ],
          "internalType": "struct PrecedenceNFT.AmarumItem[]",
          "name": "",
          "type": "tuple[]"
        }
      ],
      "stateMutability": "view",
      "type": "function"
    },
    {
      "inputs": [],
      "name": "fetchAmarumsApproved",
      "outputs": [
        {
          "components": [
            {
              "internalType": "uint256",
              "name": "tokenId",
              "type": "uint256"
            },
            {
              "internalType": "address payable",
              "name": "author",
              "type": "address"
            },
            {
              "internalType": "address payable",
              "name": "owner",
              "type": "address"
            },
            {
              "internalType": "uint256",
              "name": "price",
              "type": "uint256"
            },
            {
              "internalType": "uint256",
              "name": "dateCreated",
              "type": "uint256"
            },
            {
              "internalType": "bool",
              "name": "approved",
              "type": "bool"
            }
          ],
          "internalType": "struct PrecedenceNFT.AmarumItem[]",
          "name": "",
          "type": "tuple[]"
        }
      ],
      "stateMutability": "view",
      "type": "function"
    },
    {
      "inputs": [
        {
          "internalType": "uint256",
          "name": "tokenId",
          "type": "uint256"
        }
      ],
      "name": "fetchItemViews",
      "outputs": [
        {
          "internalType": "uint256",
          "name": "",
          "type": "uint256"
        }
      ],
      "stateMutability": "view",
      "type": "function"
    },
    {
      "inputs": [],
      "name": "fetchMyAmarums",
      "outputs": [
        {
          "components": [
            {
              "internalType": "uint256",
              "name": "tokenId",
              "type": "uint256"
            },
            {
              "internalType": "address payable",
              "name": "author",
              "type": "address"
            },
            {
              "internalType": "address payable",
              "name": "owner",
              "type": "address"
            },
            {
              "internalType": "uint256",
              "name": "price",
              "type": "uint256"
            },
            {
              "internalType": "uint256",
              "name": "dateCreated",
              "type": "uint256"
            },
            {
              "internalType": "bool",
              "name": "approved",
              "type": "bool"
            }
          ],
          "internalType": "struct PrecedenceNFT.AmarumItem[]",
          "name": "",
          "type": "tuple[]"
        }
      ],
      "stateMutability": "view",
      "type": "function"
    },
    {
      "inputs": [
        {
          "internalType": "uint256",
          "name": "_tokenId",
          "type": "uint256"
        }
      ],
      "name": "fetchOneAmarum",
      "outputs": [
        {
          "components": [
            {
              "internalType": "uint256",
              "name": "tokenId",
              "type": "uint256"
            },
            {
              "internalType": "address payable",
              "name": "author",
              "type": "address"
            },
            {
              "internalType": "address payable",
              "name": "owner",
              "type": "address"
            },
            {
              "internalType": "uint256",
              "name": "price",
              "type": "uint256"
            },
            {
              "internalType": "uint256",
              "name": "dateCreated",
              "type": "uint256"
            },
            {
              "internalType": "bool",
              "name": "approved",
              "type": "bool"
            }
          ],
          "internalType": "struct PrecedenceNFT.AmarumItem[]",
          "name": "",
          "type": "tuple[]"
        }
      ],
      "stateMutability": "view",
      "type": "function"
    },
    {
      "inputs": [],
      "name": "fetchTotalViews",
      "outputs": [
        {
          "internalType": "uint256",
          "name": "",
          "type": "uint256"
        }
      ],
      "stateMutability": "view",
      "type": "function"
    },
    {
      "inputs": [
        {
          "internalType": "uint256",
          "name": "tokenId",
          "type": "uint256"
        }
      ],
      "name": "getApproved",
      "outputs": [
        {
          "internalType": "address",
          "name": "",
          "type": "address"
        }
      ],
      "stateMutability": "view",
      "type": "function"
    },
    {
      "inputs": [
        {
          "internalType": "uint256",
          "name": "tokenId",
          "type": "uint256"
        }
      ],
      "name": "getDatasetPrice",
      "outputs": [
        {
          "internalType": "uint256",
          "name": "",
          "type": "uint256"
        }
      ],
      "stateMutability": "view",
      "type": "function"
    },
    {
      "inputs": [
        {
          "internalType": "address",
          "name": "owner",
          "type": "address"
        },
        {
          "internalType": "address",
          "name": "operator",
          "type": "address"
        }
      ],
      "name": "isApprovedForAll",
      "outputs": [
        {
          "internalType": "bool",
          "name": "",
          "type": "bool"
        }
      ],
      "stateMutability": "view",
      "type": "function"
    },
    {
      "inputs": [],
      "name": "name",
      "outputs": [
        {
          "internalType": "string",
          "name": "",
          "type": "string"
        }
      ],
      "stateMutability": "view",
      "type": "function"
    },
    {
      "inputs": [
        {
          "internalType": "uint256",
          "name": "tokenId",
          "type": "uint256"
        }
      ],
      "name": "ownerOf",
      "outputs": [
        {
          "internalType": "address",
          "name": "",
          "type": "address"
        }
      ],
      "stateMutability": "view",
      "type": "function"
    },
    {
      "inputs": [
        {
          "internalType": "address",
          "name": "from",
          "type": "address"
        },
        {
          "internalType": "address",
          "name": "to",
          "type": "address"
        },
        {
          "internalType": "uint256",
          "name": "tokenId",
          "type": "uint256"
        }
      ],
      "name": "safeTransferFrom",
      "outputs": [],
      "stateMutability": "nonpayable",
      "type": "function"
    },
    {
      "inputs": [
        {
          "internalType": "address",
          "name": "from",
          "type": "address"
        },
        {
          "internalType": "address",
          "name": "to",
          "type": "address"
        },
        {
          "internalType": "uint256",
          "name": "tokenId",
          "type": "uint256"
        },
        {
          "internalType": "bytes",
          "name": "data",
          "type": "bytes"
        }
      ],
      "name": "safeTransferFrom",
      "outputs": [],
      "stateMutability": "nonpayable",
      "type": "function"
    },
    {
      "inputs": [
        {
          "internalType": "address",
          "name": "operator",
          "type": "address"
        },
        {
          "internalType": "bool",
          "name": "approved",
          "type": "bool"
        }
      ],
      "name": "setApprovalForAll",
      "outputs": [],
      "stateMutability": "nonpayable",
      "type": "function"
    },
    {
      "inputs": [
        {
          "internalType": "bytes4",
          "name": "interfaceId",
          "type": "bytes4"
        }
      ],
      "name": "supportsInterface",
      "outputs": [
        {
          "internalType": "bool",
          "name": "",
          "type": "bool"
        }
      ],
      "stateMutability": "view",
      "type": "function"
    },
    {
      "inputs": [],
      "name": "symbol",
      "outputs": [
        {
          "internalType": "string",
          "name": "",
          "type": "string"
        }
      ],
      "stateMutability": "view",
      "type": "function"
    },
    {
      "inputs": [
        {
          "internalType": "uint256",
          "name": "tokenId",
          "type": "uint256"
        }
      ],
      "name": "tokenURI",
      "outputs": [
        {
          "internalType": "string",
          "name": "",
          "type": "string"
        }
      ],
      "stateMutability": "view",
      "type": "function"
    },
    {
      "inputs": [],
      "name": "totalVotes",
      "outputs": [
        {
          "internalType": "uint256",
          "name": "",
          "type": "uint256"
        }
      ],
      "stateMutability": "view",
      "type": "function"
    },
    {
      "inputs": [
        {
          "internalType": "address",
          "name": "from",
          "type": "address"
        },
        {
          "internalType": "address",
          "name": "to",
          "type": "address"
        },
        {
          "internalType": "uint256",
          "name": "tokenId",
          "type": "uint256"
        }
      ],
      "name": "transferFrom",
      "outputs": [],
      "stateMutability": "nonpayable",
      "type": "function"
    },
    {
      "inputs": [
        {
          "internalType": "uint256",
          "name": "_tokenId",
          "type": "uint256"
        },
        {
          "internalType": "uint256",
          "name": "_price",
          "type": "uint256"
        }
      ],
      "name": "updateDatasetPrice",
      "outputs": [],
      "stateMutability": "payable",
      "type": "function"
    },
    {
      "inputs": [
        {
          "internalType": "uint256",
          "name": "value",
          "type": "uint256"
        }
      ],
      "name": "withdraw",
      "outputs": [],
      "stateMutability": "nonpayable",
      "type": "function"
    }
  ],
  "bytecode": "0x60806040523480156200001157600080fd5b506040518060400160405280600d81526020016c159a59195bcb51185d185cd95d609a1b8152506040518060400160405280600381526020016256445360e81b8152508160009081620000659190620001b8565b506001620000748282620001b8565b5050600b8054336001600160a01b03199182168117909255600c805490911690911790555062000288565b634e487b7160e01b600052604160045260246000fd5b634e487b7160e01b600052602260045260246000fd5b600281046001821680620000e057607f821691505b602082108103620000f557620000f5620000b5565b50919050565b60006200010c620001098381565b90565b92915050565b6200011d83620000fb565b81546008840282811b60001990911b908116901990911617825550505050565b60006200014c81848462000112565b505050565b818110156200017057620001676000826200013d565b60010162000151565b5050565b601f8211156200014c576000818152602090206020601f850104810160208510156200019d5750805b620001b16020601f86010483018262000151565b5050505050565b81516001600160401b03811115620001d457620001d46200009f565b620001e08254620000cb565b620001ed82828562000174565b6020601f8311600181146200022457600084156200020b5750858201515b600019600886021c198116600286021786555062000280565b600085815260208120601f198616915b8281101562000256578885015182556020948501946001909201910162000234565b86831015620002735784890151600019601f89166008021c191682555b6001600288020188555050505b505050505050565b612a7380620002986000396000f3fe6080604052600436106101c25760003560e01c806370a08231116100f7578063c87b56dd11610095578063f55be08611610064578063f55be08614610513578063f851a44014610528578063fef6b32714610548578063ffcb40091461055f57600080fd5b8063c87b56dd14610475578063d69b36f814610495578063d6eb5486146104b5578063e985e9c5146104ca57600080fd5b806395d89b41116100d157806395d89b41146103f0578063a22cb46514610405578063b88d4fde14610425578063c5d92be61461044557600080fd5b806370a08231146103905780638727f720146103b05780638b0f74a6146103d057600080fd5b80632e1a7d4d116101645780633c8f28231161013e5780633c8f28231461031d57806342842e0e1461033d57806345576f941461035d5780636352211e1461037057600080fd5b80632e1a7d4d146102d35780632ed06c3b146102f357806338c1ee7f1461030657600080fd5b8063095ea7b3116101a0578063095ea7b31461024c5780630d15fd771461026e5780631407a2371461029157806323b872dd146102b357600080fd5b806301ffc9a7146101c757806306fdde03146101fd578063081812fc1461021f575b600080fd5b3480156101d357600080fd5b506101e76101e2366004611c37565b610574565b6040516101f49190611c62565b60405180910390f35b34801561020957600080fd5b50610212610611565b6040516101f49190611cc6565b34801561022b57600080fd5b5061023f61023a366004611ce8565b6106a3565b6040516101f49190611d23565b34801561025857600080fd5b5061026c610267366004611d45565b6106ca565b005b34801561027a57600080fd5b50610284600d5481565b6040516101f49190611d88565b34801561029d57600080fd5b506102a6610776565b6040516101f49190611e63565b3480156102bf57600080fd5b5061026c6102ce366004611e74565b610911565b3480156102df57600080fd5b5061026c6102ee366004611ce8565b610942565b61026c610301366004611ec4565b610a11565b34801561031257600080fd5b50600a546102849081565b34801561032957600080fd5b5061026c610338366004611ce8565b610a50565b34801561034957600080fd5b5061026c610358366004611e74565b610b04565b61028461036b366004611fd9565b610b1f565b34801561037c57600080fd5b5061023f61038b366004611ce8565b610b59565b34801561039c57600080fd5b506102846103ab366004612014565b610b8e565b3480156103bc57600080fd5b506102846103cb366004611ce8565b610bd2565b3480156103dc57600080fd5b506102a66103eb366004611ce8565b610c3b565b3480156103fc57600080fd5b50610212610e14565b34801561041157600080fd5b5061026c610420366004612048565b610e23565b34801561043157600080fd5b5061026c61044036600461207b565b610e2e565b34801561045157600080fd5b50610284610460366004611ce8565b6000908152600e602052604090206003015490565b34801561048157600080fd5b50610212610490366004611ce8565b610e66565b3480156104a157600080fd5b5061026c6104b0366004611ce8565b610f76565b3480156104c157600080fd5b506102a6611007565b3480156104d657600080fd5b506101e76104e53660046120fa565b6001600160a01b03918216600090815260056020908152604080832093909416825291909152205460ff1690565b34801561051f57600080fd5b506102846111ec565b34801561053457600080fd5b50600c5461023f906001600160a01b031681565b34801561055457600080fd5b506009546102849081565b34801561056b57600080fd5b506102a66111f8565b60006001600160e01b031982167f80ac58cd0000000000000000000000000000000000000000000000000000000014806105d757506001600160e01b031982167f5b5e139f00000000000000000000000000000000000000000000000000000000145b8061060b57507f01ffc9a7000000000000000000000000000000000000000000000000000000006001600160e01b03198316145b92915050565b60606000805461062090612143565b80601f016020809104026020016040519081016040528092919081815260200182805461064c90612143565b80156106995780601f1061066e57610100808354040283529160200191610699565b820191906000526020600020905b81548152906001019060200180831161067c57829003601f168201915b5050505050905090565b60006106ae826113d7565b506000908152600460205260409020546001600160a01b031690565b60006106d582610b59565b9050806001600160a01b0316836001600160a01b0316036107115760405162461bcd60e51b8152600401610708906121cc565b60405180910390fd5b336001600160a01b038216148061074b57506001600160a01b038116600090815260056020908152604080832033845290915290205460ff165b6107675760405162461bcd60e51b815260040161070890612236565b610771838361140e565b505050565b6060600061078360075490565b9050600061079060075490565b90506000808267ffffffffffffffff8111156107ae576107ae611ee6565b60405190808252806020026020018201604052801561080e57816020015b6040805160c08101825260008082526020808301829052928201819052606082018190526080820181905260a082015282526000199092019101816107cc5790505b50905060005b848110156109085730600e600061082c84600161225c565b81526020810191909152604001600020600201546001600160a01b0316036108f657600061085b82600161225c565b6000818152600e6020908152604091829020825160c0810184528154815260018201546001600160a01b03908116938201939093526002820154909216928201929092526003820154606082015260048201546080820152600582015460ff16151560a0820152855192935090918590879081106108db576108db61226f565b60209081029190910101526108f160018661225c565b945050505b8061090081612285565b915050610814565b50949350505050565b61091b338261147c565b6109375760405162461bcd60e51b8152600401610708906122f9565b6107718383836114fa565b600b546001600160a01b0316331461096c5760405162461bcd60e51b815260040161070890612340565b4781111561098c5760405162461bcd60e51b815260040161070890612384565b600b546040516000916001600160a01b03169083906109aa90612397565b60006040518083038185875af1925050503d80600081146109e7576040519150601f19603f3d011682016040523d82523d6000602084013e6109ec565b606091505b5050905080610a0d5760405162461bcd60e51b8152600401610708906123d3565b5050565b600b546001600160a01b03163314610a3b5760405162461bcd60e51b81526004016107089061243d565b6000918252600e602052604090912060030155565b610a5e600980546001019055565b6000610a6960095490565b604080516060810182528281526020808201868152338385018181526000878152600f9094529285902093518455905160018401559051600290920180546001600160a01b0319166001600160a01b0390931692909217909155905191925082917f76eeab97092ad834df0b561eae45cd54f5583ebef4240be2483d115d9fb4ed6191610af89186919061244d565b60405180910390a25050565b61077183838360405180602001604052806000815250610e2e565b6000610b2f600780546001019055565b6000610b3a60075490565b9050610b463382611622565b610b50818461171d565b61060b81611769565b6000818152600260205260408120546001600160a01b03168061060b5760405162461bcd60e51b81526004016107089061249c565b60006001600160a01b038216610bb65760405162461bcd60e51b815260040161070890612506565b506001600160a01b031660009081526003602052604090205490565b600080610bde60095490565b90506000805b82811015610c335784600f6000610bfc84600161225c565b81526020019081526020016000206001015403610c2157610c1e60018361225c565b91505b80610c2b81612285565b915050610be4565b509392505050565b60606000610c4860075490565b905060008060005b83811015610c9f5785600e6000610c6884600161225c565b81526020019081526020016000206000015403610c8d57610c8a60018461225c565b92505b80610c9781612285565b915050610c50565b5060008267ffffffffffffffff811115610cbb57610cbb611ee6565b604051908082528060200260200182016040528015610d1b57816020015b6040805160c08101825260008082526020808301829052928201819052606082018190526080820181905260a08201528252600019909201910181610cd95790505b50905060005b84811015610e0a5786600e6000610d3984600161225c565b81526020019081526020016000206000015403610df8576000610d5d82600161225c565b6000818152600e6020908152604091829020825160c0810184528154815260018201546001600160a01b03908116938201939093526002820154909216928201929092526003820154606082015260048201546080820152600582015460ff16151560a082015285519293509091859087908110610ddd57610ddd61226f565b6020908102919091010152610df360018661225c565b945050505b80610e0281612285565b915050610d21565b5095945050505050565b60606001805461062090612143565b610a0d338383611849565b610e38338361147c565b610e545760405162461bcd60e51b8152600401610708906122f9565b610e60848484846118eb565b50505050565b6060610e71826113d7565b60008281526006602052604081208054610e8a90612143565b80601f0160208091040260200160405190810160405280929190818152602001828054610eb690612143565b8015610f035780601f10610ed857610100808354040283529160200191610f03565b820191906000526020600020905b815481529060010190602001808311610ee657829003601f168201915b505050505090506000610f2160408051602081019091526000815290565b90508051600003610f33575092915050565b815115610f65578082604051602001610f4d929190612538565b60405160208183030381529060405292505050919050565b610f6e8461191e565b949350505050565b600c546001600160a01b03163314610fa05760405162461bcd60e51b815260040161070890612584565b6000818152600e60205260409020600501805460ff19166001179055610fca600a80546001019055565b807f7b3e57f92a64bfa12c15cfbeddc70d341fcd97a16b9e40d978ac7250d653de183342604051610ffc929190612594565b60405180910390a250565b6060600061101460075490565b905060008060005b838110156110765733600e600061103484600161225c565b81526020810191909152604001600020600101546001600160a01b0316036110645761106160018461225c565b92505b8061106e81612285565b91505061101c565b5060008267ffffffffffffffff81111561109257611092611ee6565b6040519080825280602002602001820160405280156110f257816020015b6040805160c08101825260008082526020808301829052928201819052606082018190526080820181905260a082015282526000199092019101816110b05790505b50905060005b848110156109085733600e600061111084600161225c565b81526020810191909152604001600020600101546001600160a01b0316036111da57600061113f82600161225c565b6000818152600e6020908152604091829020825160c0810184528154815260018201546001600160a01b03908116938201939093526002820154909216928201929092526003820154606082015260048201546080820152600582015460ff16151560a0820152855192935090918590879081106111bf576111bf61226f565b60209081029190910101526111d560018661225c565b945050505b806111e481612285565b9150506110f8565b60008061060b60095490565b6060600061120560075490565b905060008060005b8381101561126457600e600061122483600161225c565b815260208101919091526040016000206005015460ff1615156001036112525761124f60018461225c565b92505b8061125c81612285565b91505061120d565b5060008267ffffffffffffffff81111561128057611280611ee6565b6040519080825280602002602001820160405280156112e057816020015b6040805160c08101825260008082526020808301829052928201819052606082018190526080820181905260a0820152825260001990920191018161129e5790505b50905060005b8481101561090857600e60006112fd83600161225c565b815260208101919091526040016000206005015460ff1615156001036113c557600061132a82600161225c565b6000818152600e6020908152604091829020825160c0810184528154815260018201546001600160a01b03908116938201939093526002820154909216928201929092526003820154606082015260048201546080820152600582015460ff16151560a0820152855192935090918590879081106113aa576113aa61226f565b60209081029190910101526113c060018661225c565b945050505b806113cf81612285565b9150506112e6565b6000818152600260205260409020546001600160a01b031661140b5760405162461bcd60e51b81526004016107089061249c565b50565b600081815260046020526040902080546001600160a01b0319166001600160a01b038416908117909155819061144382610b59565b6001600160a01b03167f8c5be1e5ebec7d5bd14f71427d1e84f3dd0314c0f7b2291e5b200ac8c7c3b92560405160405180910390a45050565b60008061148883610b59565b9050806001600160a01b0316846001600160a01b031614806114cf57506001600160a01b0380821660009081526005602090815260408083209388168352929052205460ff165b80610f6e5750836001600160a01b03166114e8846106a3565b6001600160a01b031614949350505050565b826001600160a01b031661150d82610b59565b6001600160a01b0316146115335760405162461bcd60e51b815260040161070890612609565b6001600160a01b0382166115595760405162461bcd60e51b815260040161070890612673565b826001600160a01b031661156c82610b59565b6001600160a01b0316146115925760405162461bcd60e51b815260040161070890612609565b600081815260046020908152604080832080546001600160a01b03199081169091556001600160a01b0387811680865260038552838620805460001901905590871680865283862080546001019055868652600290945282852080549092168417909155905184937fddf252ad1be2c89b69c2b068fc378daa952ba7f163c4a11628f55a4df523b3ef91a4505050565b6001600160a01b0382166116485760405162461bcd60e51b8152600401610708906126b5565b6000818152600260205260409020546001600160a01b03161561167d5760405162461bcd60e51b8152600401610708906126f9565b6000818152600260205260409020546001600160a01b0316156116b25760405162461bcd60e51b8152600401610708906126f9565b6001600160a01b038216600081815260036020908152604080832080546001019055848352600290915280822080546001600160a01b0319168417905551839291907fddf252ad1be2c89b69c2b068fc378daa952ba7f163c4a11628f55a4df523b3ef908290a45050565b6000828152600260205260409020546001600160a01b03166117515760405162461bcd60e51b815260040161070890612763565b60008281526006602052604090206107718282612810565b6040805160c08101825282815233602080830182815230848601818152600060608701818152426080890190815260a089018381528b8452600e909752989091209651875592516001870180546001600160a01b03199081166001600160a01b0393841617909155915160028801805490931691161790559051600385015593516004840155516005909201805460ff19169215159290921790915561180f91836114fa565b807fc590106236c6001252e9837a8ef9b67ba4a70dba67f1784a6f00f564cdc17bfc33306000426000604051610ffc9594939291906128dd565b816001600160a01b0316836001600160a01b03160361187a5760405162461bcd60e51b81526004016107089061295d565b6001600160a01b0383811660008181526005602090815260408083209487168084529490915290819020805460ff1916851515179055517f17307eab39ab6107e8899845ad3d59bd9653f200f220920489ca2b5937696c31906118de908590611c62565b60405180910390a3505050565b6118f68484846114fa565b61190284848484611992565b610e605760405162461bcd60e51b8152600401610708906129c7565b6060611929826113d7565b600061194060408051602081019091526000815290565b90506000815111611960576040518060200160405280600081525061198b565b8061196a84611a93565b60405160200161197b929190612538565b6040516020818303038152906040525b9392505050565b60006001600160a01b0384163b15611a8857604051630a85bd0160e11b81526001600160a01b0385169063150b7a02906119d69033908990889088906004016129d7565b6020604051808303816000875af1925050508015611a11575060408051601f3d908101601f19168201909252611a0e91810190612a1c565b60015b611a6e573d808015611a3f576040519150601f19603f3d011682016040523d82523d6000602084013e611a44565b606091505b508051600003611a665760405162461bcd60e51b8152600401610708906129c7565b805181602001fd5b6001600160e01b031916630a85bd0160e11b149050610f6e565b506001949350505050565b60606000611aa083611b33565b600101905060008167ffffffffffffffff811115611ac057611ac0611ee6565b6040519080825280601f01601f191660200182016040528015611aea576020820181803683370190505b5090508181016020015b600019017f3031323334353637383961626364656600000000000000000000000000000000600a86061a8153600a8504945084611af457509392505050565b6000807a184f03e93ff9f4daa797ed6e38ed64bf6a1f0100000000000000008310611b7c577a184f03e93ff9f4daa797ed6e38ed64bf6a1f010000000000000000830492506040015b6d04ee2d6d415b85acef81000000008310611ba8576d04ee2d6d415b85acef8100000000830492506020015b662386f26fc100008310611bc657662386f26fc10000830492506010015b6305f5e1008310611bde576305f5e100830492506008015b6127108310611bf257612710830492506004015b60648310611c04576064830492506002015b600a831061060b5760010192915050565b6001600160e01b031981165b811461140b57600080fd5b803561060b81611c15565b600060208284031215611c4c57611c4c600080fd5b6000610f6e8484611c2c565b8015155b82525050565b6020810161060b8284611c58565b60005b83811015611c8b578181015183820152602001611c73565b50506000910152565b6000611c9e825190565b808452602084019350611cb5818560208601611c70565b601f01601f19169290920192915050565b6020808252810161198b8184611c94565b80611c21565b803561060b81611cd7565b600060208284031215611cfd57611cfd600080fd5b6000610f6e8484611cdd565b60006001600160a01b03821661060b565b611c5c81611d09565b6020810161060b8284611d1a565b611c2181611d09565b803561060b81611d31565b60008060408385031215611d5b57611d5b600080fd5b6000611d678585611d3a565b9250506020611d7885828601611cdd565b9150509250929050565b80611c5c565b6020810161060b8284611d82565b805160c0830190611da78482611d82565b506020820151611dba6020850182611d1a565b506040820151611dcd6040850182611d1a565b506060820151611de06060850182611d82565b506080820151611df36080850182611d82565b5060a0820151610e6060a0850182611c58565b6000611e128383611d96565b505060c00190565b6000611e24825190565b80845260209384019383018060005b83811015611e58578151611e478882611e06565b975060208301925050600101611e33565b509495945050505050565b6020808252810161198b8184611e1a565b600080600060608486031215611e8c57611e8c600080fd5b6000611e988686611d3a565b9350506020611ea986828701611d3a565b9250506040611eba86828701611cdd565b9150509250925092565b60008060408385031215611eda57611eda600080fd5b6000611d678585611cdd565b634e487b7160e01b600052604160045260246000fd5b601f19601f830116810181811067ffffffffffffffff82111715611f2257611f22611ee6565b6040525050565b6000611f3460405190565b9050611f408282611efc565b919050565b600067ffffffffffffffff821115611f5f57611f5f611ee6565b601f19601f83011660200192915050565b82818337506000910152565b6000611f8f611f8a84611f45565b611f29565b905082815260208101848484011115611faa57611faa600080fd5b610c33848285611f70565b600082601f830112611fc957611fc9600080fd5b8135610f6e848260208601611f7c565b600060208284031215611fee57611fee600080fd5b813567ffffffffffffffff81111561200857612008600080fd5b610f6e84828501611fb5565b60006020828403121561202957612029600080fd5b6000610f6e8484611d3a565b801515611c21565b803561060b81612035565b6000806040838503121561205e5761205e600080fd5b600061206a8585611d3a565b9250506020611d788582860161203d565b6000806000806080858703121561209457612094600080fd5b60006120a08787611d3a565b94505060206120b187828801611d3a565b93505060406120c287828801611cdd565b925050606085013567ffffffffffffffff8111156120e2576120e2600080fd5b6120ee87828801611fb5565b91505092959194509250565b6000806040838503121561211057612110600080fd5b600061211c8585611d3a565b9250506020611d7885828601611d3a565b634e487b7160e01b600052602260045260246000fd5b60028104600182168061215757607f821691505b6020821081036121695761216961212d565b50919050565b602181526000602082017f4552433732313a20617070726f76616c20746f2063757272656e74206f776e6581527f7200000000000000000000000000000000000000000000000000000000000000602082015291505b5060400190565b6020808252810161060b8161216f565b603d81526000602082017f4552433732313a20617070726f76652063616c6c6572206973206e6f7420746f81527f6b656e206f776e6572206f7220617070726f76656420666f7220616c6c000000602082015291506121c5565b6020808252810161060b816121dc565b634e487b7160e01b600052601160045260246000fd5b8082018082111561060b5761060b612246565b634e487b7160e01b600052603260045260246000fd5b6000600019820361229857612298612246565b5060010190565b602d81526000602082017f4552433732313a2063616c6c6572206973206e6f7420746f6b656e206f776e6581527f72206f7220617070726f76656400000000000000000000000000000000000000602082015291506121c5565b6020808252810161060b8161229f565b601881526000602082017f41646472657373206973206e6f7420746865206f776e65720000000000000000815291505b5060200190565b6020808252810161060b81612309565b601a81526000602082017f56616c756520686967686572207468616e2062616c616e63652e00000000000081529150612339565b6020808252810161060b81612350565b90565b60008161060b565b601381526000602082017f54686572652077617320616e206572726f72210000000000000000000000000081529150612339565b6020808252810161060b8161239f565b603681526000602082017f4f6e6c79206d61726b6574706c616365206f776e65722f61646d696e2063616e81527f2075706461746520646174617365742070726963652e00000000000000000000602082015291506121c5565b6020808252810161060b816123e3565b6040810161245b8285611d82565b61198b6020830184611d1a565b601881526000602082017f4552433732313a20696e76616c696420746f6b656e204944000000000000000081529150612339565b6020808252810161060b81612468565b602981526000602082017f4552433732313a2061646472657373207a65726f206973206e6f74206120766181527f6c6964206f776e65720000000000000000000000000000000000000000000000602082015291506121c5565b6020808252810161060b816124ac565b6000612520825190565b61252e818560208601611c70565b9290920192915050565b60006125448285612516565b9150610f6e8284612516565b601581526000602082017f4f6e6c792061646d696e2063616e20637265617465000000000000000000000081529150612339565b6020808252810161060b81612550565b604081016125a28285611d1a565b61198b6020830184611d82565b602581526000602082017f4552433732313a207472616e736665722066726f6d20696e636f72726563742081527f6f776e6572000000000000000000000000000000000000000000000000000000602082015291506121c5565b6020808252810161060b816125af565b602481526000602082017f4552433732313a207472616e7366657220746f20746865207a65726f2061646481527f7265737300000000000000000000000000000000000000000000000000000000602082015291506121c5565b6020808252810161060b81612619565b60208082527f4552433732313a206d696e7420746f20746865207a65726f206164647265737391019081526000612339565b6020808252810161060b81612683565b601c81526000602082017f4552433732313a20746f6b656e20616c7265616479206d696e7465640000000081529150612339565b6020808252810161060b816126c5565b602e81526000602082017f45524337323155524953746f726167653a2055524920736574206f66206e6f6e81527f6578697374656e7420746f6b656e000000000000000000000000000000000000602082015291506121c5565b6020808252810161060b81612709565b600061060b6123948381565b61278883612773565b81546008840282811b60001990911b908116901990911617825550505050565b600061077181848461277f565b81811015610a0d576127c86000826127a8565b6001016127b5565b601f821115610771576000818152602090206020601f850104810160208510156127f75750805b6128096020601f8601048301826127b5565b5050505050565b815167ffffffffffffffff81111561282a5761282a611ee6565b6128348254612143565b61283f8282856127d0565b6020601f831160018114612873576000841561285b5750858201515b600019600886021c19811660028602178655506128cc565b600085815260208120601f198616915b828110156128a35788850151825560209485019460019092019101612883565b868310156128bf5784890151600019601f89166008021c191682555b6001600288020188555050505b505050505050565b611c5c81612773565b60a081016128eb8288611d1a565b6128f86020830187611d1a565b61290560408301866128d4565b6129126060830185611d82565b61291f6080830184611c58565b9695505050505050565b601981526000602082017f4552433732313a20617070726f766520746f2063616c6c65720000000000000081529150612339565b6020808252810161060b81612929565b603281526000602082017f4552433732313a207472616e7366657220746f206e6f6e20455243373231526581527f63656976657220696d706c656d656e7465720000000000000000000000000000602082015291506121c5565b6020808252810161060b8161296d565b608081016129e58287611d1a565b6129f26020830186611d1a565b6129ff6040830185611d82565b818103606083015261291f8184611c94565b805161060b81611c15565b600060208284031215612a3157612a31600080fd5b6000610f6e8484612a1156fea26469706673582212209cbf24e572dd1f0842a73135a5b4bb1894fb37a8b1f016f1421f8b127733cd3e64736f6c63430008110033",
  "linkReferences": {},
  "deployedLinkReferences": {}
}